:0300000002083AB9
:0C083A00787FE4F6D8FD75814702088144
:100CA5004C3A00483A004B45590054656D703A007E
:100B0000C180043C41E00000044041C800000144B1
:070B100000014500013B005C
:100C4F00300015AF3B053BEFC394C8400BE4F53BB9
:080C5F003094028001D392944D
:010C6700226A
:1008C6007F0C120CD37BFF7A0C79A57FC0120B2DFF
:1008D600E4FFFE7D207C41AB43AA42A941A8401219
:1008E6000106120357AD07AC06E4FF120A7B7FDF51
:1008F600120CB87F43120CB87BFF7A0C79A8E4FF80
:10090600120B2DE4FFFE7D207C41AB3FAA3EA93DA4
:10091600A83C120106120357AD07AC06E4FF120A03
:0B0926007B7FDF120CB87F43020CB88F
:10068E00C2B7D2B0D2B1D2B220B0267F057E001250
:10069E000BD020B01CE545146011146009240270C3
:1006AE000D75450280087545018003E4F54530B0AF
:1006BE00FD20B14F7F057E00120BD020B145E545E0
:1006CE0024FE601F047036AF3FAE3EAD3DAC3CE441
:1006DE00FBFA7980783F1200158F3F8E3E8D3D8C50
:1006EE003C801AAF43AE42AD41AC40E4FBFA798098
:1006FE00783F1200158F438E428D418C401208C6F2
:10070E0030B1FD20B24F7F057E00120BD020B245D6
:10071E00E54524FE601F047036AF3FAE3EAD3DACE6
:10072E003CE4FBFA798078BF1200158F3F8E3E8D28
:10073E003D8C3C801AAF43AE42AD41AC40E4FBFA77
:10074E00798078BF1200158F438E428D418C4012F6
:06075E0008C630B2FD22C6
:1004A600E4F524F523F522F521F528F527F526F5BB
:1004B60025120BDE7F057E00120C34120C18752CEB
:1004C600FF752D06752E8E7BFF7A0C79AB120931DE
:1004D6001208C6E5456003020660120CDDAC06ADE7
:1004E60007E412031EE4FBFA7920784112020F8F0B
:1004F600248E238D228C21E4FFFE7D207C42AB24BA
:10050600AA23A922A8211202AC600250C6AF3FAEB0
:100516003EAD3DAC3CAB24AA23A922A8211202ACD5
:10052600501AAF43AE42AD41AC40AB24AA23A92238
:10053600A8211202AC60054003020624D200AF4394
:10054600AE42AD41AC40AB24AA23A922A821120297
:10055600AC60025043AB24AA23A922A821AF43AE24
:1005660042AD41AC40120011E4FBFA7980783F12AB
:1005760002AC5002C2A37F02120C81AB24AA23A9AB
:1005860022A821AF43AE42AD41AC40120011AB43AD
:10059600AA42A941A8408041AB3FAA3EA93DA83C3A
:1005A600AF24AE23AD22AC21120011E4FBFA798010
:1005B600783F1202AC5002C2A37F01120C81AB3FFE
:1005C600AA3EA93DA83CAF24AE23AD22AC21120021
:1005D60011AB3FAA3EA93DA83C12020F8F288E27D9
:1005E6008D268C25E4FFFE7D807C3FAB28AA27A9BB
:1005F60026A8251202AC600640047F198024E4FF79
:10060600FE7D487C42AB28AA27A926A8251201060A
:10061600E4FBFAF9784012020F1203578004D2A3C2
:10062600E4FF120C937BFF7A0C79AF7F80120B2DBF
:10063600E4FFFE7D207C41AB24AA23A922A8211237
:100646000106120357AD07AC06E4FF120A7B7FDFF3
:10065600120CB87F43120CB88005120CE4D2A3E545
:100666004514600E146014240260030204D97F0C42
:1006760080107FC8120CD37F0F80077FC0120CD367
:080686007F0F120CD30204D90E
:100764008E348F358B368A378938D3E53594E7E56F
:10077400349403504B7C007D641203F1EE8FF0122D
:100784000446AE34AF357C007D0A1203F17C007D53
:100794000A1203F1AB36AA37A938900002EC8DF0A7
:1007A400120465AE34AF357C007D0A1203F1AB361A
:1007B400AA37A938900004EC8DF01204657F00225A
:1007C400AE34AF357C037DE81203F1AB36AA37A90A
:1007D40038EE8FF0120446AE34AF357C007D6412DF
:1007E40003F17C007D0A1203F1AB36AA37A93890D5
:1007F4000002EC8DF0120465AE34AF357C007D0A46
:100804001203F17C007D0A1203F1AB36AA37A93832
:10081400900004EC8DF0120465AE34AF357C007D9D
:100824000A1203F1AB36AA37A938900006EC8DF012
:060834001204657F0122A1
:040A7B008C298D2A0B
:100A7F00EF6003120CD37B007A00792BAF2AAE29DB
:100A8F001207648F33E52C120CB5E52E120CB5E569
:100A9F00336011E5302430FF120CB87F2E120CB8E2
:100AAF00E53280077F2E120CB8E5302430FF120C90
:010ABF00B87E
:010AC0002213
:100B2D008B298A2A892BEF6003120CD3AB29AA2AB1
:100B3D00A92B1203D8FF6010120CB87401252BF5E8
:090B4D002BE4352AF52A80E4228C
:0F0BC1008F807F057E00120BD0D2B47F057E009F
:0D0BD000EFD3940040077E6EDEFE1F80F321
:010BDD0022F5
:030CB5002430FFE9
:0C0CB800C2B4D2B5120BC1C2B4C2B52246
:0A0CD300C2B4C2B5120BC1C2B422B4
:100BDE00C2A6C2A77F38120CD37F0C120CD37F068D
:0D0BEE00120CD37F01120CD37F80020CD3B8
:040CE90050574D0013
:080B1700014701014600C10184
:100C8100EF24FE6008047009D2A4C2A522C2A4D236
:020C9100A5229A
:100B5600200124E546C395475004D2A68017E546F2
:100B6600C39547400BE546D394325004C2A6800590
:080B7600D2A6E4F54605462273
:100C1800C2A67F01120C81752CFF752D0B752E56FF
:0C0C28007BFF7A0C79E9120931020CE420
:100C9300EFD39432500280027F328F47E4F546C28D
:020CA30001222C
:050CE400C2A6D20122AE
:100C6800EF4E60147DC87C00ED1D70011CED4C70CA
:080C7800F7EF1F70EB1E80E88E
:010C80002251
:100BA200C2A27F677E00EF1F70011EEF4E70F7D268
:0E0BB200A27E007F04EF1F70011EEF4E70F751
:010BC0002212
:100B7E00C2A20FBF0000D2A20FBF00000FBF000025
:100B8E00A2A292027E007F08EF1F70011EEF4E7030
:030B9E00F7A202B9
:010BA1002231
:100BFB00E4FD7C01120B7EE433FFC43333335480AA
:0C0C0B00FEEDC3134EFD0CBC09EAAF0562
:010C170022BA
:0C098900120BA27F017E00120C687FCCD4
:100995007E01EF139202EFC313FF30021BC2A20BBD
:1009A500BB00000BBB0000D2A27A007B08EB1B70DA
:1009B500011AEB4A70F7801BC2A27A007B08EB1B79
:1009C50070011AEB4A70F7D2A20BBB00010A0BBBF0
:0709D50000010A0EBE09BB80
:0109DC0022F8
:080003001209897F44020995EE
:100A2F001209897FBE120995120BFBAB07120BFB44
:100A3F00EFFEEBFFFDAC06E412031EE4FBFA798038
:100A4F00783D1201068F2C8E2B8D2A8C29E4FFFE08
:100A5F007D207C41AB2CAA2BA92AA829120106E4E0
:0B0A6F00FBFAF9783F12001512035744
:010A7A002259
:070CDD00120003120A2F228E
:0D0B1F00011EEE01080002090001010B019A
:100AC100E4F539F53AAF3AEF75F006A4240FF8864C
:100AD1000308E6FA08E64A4B6011EF75F006A42414
:100AE1000FF808E6FA08E6F91204A0053AE53A70AB
:0E0AF100020539C39403E5396480948040C740
:010AFF0022D4
:100C34007C007D051203F18E098F0AD2AFD2A9750B
:0B0C44008901851E8C85088AD28C2255
:0F0CC4007C007D051203F18E098F0AE4F50B22E7
:060931008B298A2A892BA4
:10093700E4FFFEEF75F006A4240FF8860308E6FA35
:1009470008E64A4B702CAA2DA92EEF75F006A424B1
:100957000FF8A62C08A60208A601AA2AA92BEF754C
:10096700F006A4240CF8A62908A60208A601E4FEAE
:10097700FF220FBF00010EEF64034E70B67EFF7FAC
:01098700FF70
:01098800224C
:03000B000209DD0A
:1009DD00C0E0C0F0C083C082C0D075D000C000C0E0
:1009ED0001C002C003C004C005C006C007851E8C2F
:1009FD0085088AC3E50B950AE495094008750B0136
:100A0D00120AC18002050BD007D006D005D004D044
:100A1D0003D002D001D000D0D0D082D083D0F0D07E
:020A2D00E032B5
:10000E000203C3E86480F8E933E83360110460F05A
:10001E00ED33EC337009E8FCE9FDEAFEEBFF220458
:10002E0060DED3EB9FEA9EE99DE8C2E78CF0C2F753
:10003E0095F0400CE8CCF8E9CDF9EACEFAEBCFFB1F
:10004E0012038E85D0F05804700320D5B3E80470E7
:10005E00075002B2D50203CD92D5EC0460F7E4CC82
:10006E00C0E0C398F8603B94186008400DD0E0FBE8
:10007E000203A5E4FBFAC9FC8028E830E406E4C9D3
:10008E00FBE4CAFCE830E305E4C9CACBFCE854073C
:10009E006010F8C3E913F9EA13FAEB13FBEC13FC47
:1000AE00D8F130F52FC3E49CFCEF9BFFEE9AFEEDEA
:1000BE0099FDD0E0FBEF4E4D4C701222DB03020394
:1000CE00CAEC2CFCEF33FFEE33FEED33FDED30E7E3
:1000DE00EB0203A5EF2BFFEE3AFEED39FDD0E0FB70
:1000EE0050130BBB00030203CDED13FDEE13FEEF19
:0800FE0013FFEC13FC0203A543
:10010600EC4D6011E8497017ED33EC3304600DE4F3
:10011600FCFFFEFD22E933E8330470F80203C31244
:10012600038E58046009E4CC248150062850090245
:1001360003CD2840030203CAC0E0EB4A7044B980ED
:1001460006D0E0FB0203B9EF4E701CBD8008EBFF42
:10015600EAFEE9FD80EBE98DF0A4FEE5F00201EF91
:10016600E9CDF9EAFEEBFFEF89F0A4FCE5F0CE89D4
:10017600F0A42EFFE435F0CD89F0A42DFEE435F091
:100186008067EF4E7005BD80D780C3EF8BF0A4ACBF
:10019600F0EE8BF0A42CFCE435F0F8EF8AF0A42CFA
:1001A600E5F038FCE433CB8DF0A42CFCE5F03BF80D
:1001B600EE8AF0A42CFCE5F038F8E433CF89F0A4FD
:1001C6002CFCE5F038CF3400CE89F0A42FFFE5F003
:1001D6003EFEE433C98DF0A42EFEE5F039CD8AF05B
:1001E600A42FFFE5F03EFEE43DFD33D0E0FB5007D3
:1001F6000BBB000F0203CDEC2CFCEF33FFEE33FEFE
:06020600ED33FD0203A52B
:10020C000203CDEC5D046005E8590470030203C3DE
:10021C0012038E580460F6EC4860F2EC7004FDFE9C
:10022C00FF22C860DB2481C85009C39860025006C5
:10023C000203CA9850CAF582E9294B4A7005AB8271
:10024C000203B975F0007C1A7880C3EF9BEE9AED2F
:10025C0099400DC3EF9BFFEE9AFEED99FDE842F03D
:10026C00DC23ACF0D0E0FFD0E0FED0E0FDAB822090
:10027C00E7101BEB60BAEC2CFCEF33FFEE33FEED1A
:10028C0033FD0203A5E803F830E705C0F075F00074
:10029C00EF2FFFEE33FEED33FD40B830E7C280AAFE
:1002AC0074F8CC6480CCC86480C8F582046043C305
:1002BC00EB9FF5F0EA9E42F0E99D42F0E89C45F098
:1002CC0060305018E5825FFFE582F42B5582FB50BD
:1002DC00210ABA001D09B90019088016E5825BFBDA
:1002EC00E582F42F5582FF50090EBE00050DBD00AE
:1002FC00010CC3EB9FF5F0EA9E42F0E99D42F0E859
:0D030C009C45F06007CC4820E701B3EC22CF
:1003190075F020800E75F010800575F0087D007E5F
:10032900007F003392D530D503120492EC3340108C
:10033900EF33FFEE33FEED33FDEC33FCD5F0ED2268
:0E034900E5F0247EA2D513CC92E7CDCEFF22A4
:10035700EDD2E7CD33EC3392D524814006E4FFFE9E
:10036700FDFC22FCE4CFCECDCC24E0501174FF80FD
:10037700EDC3CC13CCCD13CDCE13CECF13CF04709A
:07038700F030D5DE02049204
:10038E00E9D2E7C933E833F892D5EDD2E7CD33ECB5
:07039E0033FC5002B2D5222E
:1003A500EC30E7100FBF000C0EBE00080DBD0004B9
:1003B5000BEB6014A2D5EB13FCED92E7FD2274FF65
:1003C500FCFDFEFF22E480F8A2D574FF13FC7D80BE
:0303D500E480EFD2
:100846000204A6E493A3F8E493A34003F68001F21E
:1008560008DFF48029E493A3F85407240CC8C333B3
:10086600C4540F4420C8834004F456800146F6DF82
:10087600E4800B0102040810204080900B00E47E07
:10088600019360BCA3FF543F30E509541FFEE49377
:10089600A360010ECF54C025E060A840B8E493A33E
:1008A600FAE493A3F8E493A3C8C582C8CAC583CA69
:1008B600F0A3C8C582C8CAC583CADFE9DEE780BE21
:010B2C0000C8
:1003D800BB010689828A83E0225002E722BBFE0223
:0903E800E32289828A83E4932256
:1003F100BC000BBE0029EF8DF084FFADF022E4CCF0
:10040100F875F008EF2FFFEE33FEEC33FCEE9DECB8
:10041100984005FCEE9DFE0FD5F0E9E4CEFD22EDFE
:10042100F8F5F0EE8420D21CFEADF075F008EF2F48
:10043100FFED33FD4007985006D5F0F222C398FD39
:050441000FD5F0EA22D6
:10044600BB010A89828A83F0E5F0A3F0225006F701
:0F04560009A7F01922BBFE06F3E5F009F31922FE
:10046500F8BB0111E58229F582E5833AF583E8F0C9
:10047500E5F0A3F0225009E92582C8F608A6F02286
:0D048500BBFE09E92582C8F2E5F008F2226D
:0E049200C3E49FFFE49EFEE49DFDE49CFC227B
:0604A0008A838982E473E7
:00000001FF
