:030000000207FCF8
:0C07FC00787FE4F6D8FD758143020843C5
:100C2B004C3A00483A004C4544004B45590054653A
:040C3B006D703A009E
:100AAE00C100023C001C023E001901400001410041
:030ABE00013B00F9
:100BF900300015AF3B053BEFC39464400BE4F53B74
:080C09003093028001D39293A5
:010C110022C0
:1008E0007F0C120C817BFF7A0C792B7FC0120AD708
:1008F000AE3EAF3F7C007D0A1203F1AC06AD07E4CB
:10090000FF120A297FDF120C667F43120C667BFF01
:100910007A0C792EE4FF120AD7AE3CAF3D7C007D05
:100920000A1203F1AC06AD07E4FF120A297FDF12B9
:070930000C667F43020C6618
:10076E00C2B7D2B0D2B1D2B220B0267F057E00126F
:10077E000B7A20B01CE5411460111460092402703C
:10078E000D75410280087541018003E4F54130B0DA
:10079E00FD20B12B7F057E00120B7A20B121E541A1
:1007AE0024FE600D047012053DE53D700C053C8085
:1007BE0008053FE53F7002053E1208E030B1FD200E
:1007CE00B22B7F057E00120B7A20B221E54124FE6A
:1007DE00600D047012E53D153D700C153C8008E56A
:0E07EE003F153F7002153E1208E030B2FD22AA
:1004B800E4F524F523F522F521F528F527F526F5A9
:1004C80025120B887F057E00120BDE120BC2752CDD
:1004D800FF752D0B752EF97BFF7A0C793112088880
:1004E800752CFF752D07752E6E7BFF7A0C793512EA
:1004F80008881208E0E541600302066C120C8BAC18
:1005080006AD07E412031EE4FBFA792078411202D3
:100518000F8F248E238D228C21E4FFFE7D207C42C8
:10052800AB24AA23A922A8211202AC600250C6ACAF
:100538003EAD3FE412031EAB24AA23A922A8211230
:1005480002AC601A4018AC3CAD3DE412031EAB246B
:10055800AA23A922A8211202AC500302062CD20019
:10056800C2A3AC3EAD3FE412031EAB24AA23A922CA
:10057800A8211202AC600250267F02120C3FAC3E4A
:10058800AD3FE412031EAB24AA23A922A82112001E
:1005980011C004C005C006C007AC3EAD3F802C7F2B
:1005A80001120C3FAC3CAD3DE412031EA804A905A2
:1005B800AA06AB07AF24AE23AD22AC21120011C0AE
:1005C80004C005C006C007AC3CAD3DE412031EA83C
:1005D80004A905AA06AB07D007D006D005D0041297
:1005E800020F8F288E278D268C25E4FFFE7D807CC8
:1005F8003FAB28AA27A926A8251202AC600640040A
:100608007F198028E4FFFE7D487C42AB28AA27A9F1
:1006180026A825120106E4FBFAF9784012020F1207
:1006280003578008C200D293D2A3E4FF120C517B77
:10063800FF7A0C79397F80120AD7E4FFFE7D207C8F
:1006480041AB24AA23A922A821120106120357ADFF
:1006580007AC06E4FF120A297FDF120C667F4312FB
:100668000C668003120C92E54114600E1460142489
:100678000260030204FD7F0C80107FC8120C817F8A
:100688000F80077FC0120C817F0F120C810204FDBE
:100698008E348F358B368A378938D3E53594E7E53C
:1006A800349403504B7C007D64120403EE8FF012E7
:1006B8000458AE34AF357C007D0A1204037C007DFB
:1006C8000A120403AB36AA37A938900002EC8DF061
:1006D800120477AE34AF357C007D0A120403AB36C2
:1006E800AA37A938900004EC8DF01204777F002215
:1006F800AE34AF357C037DE8120403AB36AA37A9C4
:1007080038EE8FF0120458AE34AF357C007D641299
:1007180004037C007D0A120403AB36AA37A938907B
:100728000002EC8DF0120477AE34AF357C007D0A00
:100738001204037C007D0A120403AB36AA37A938D9
:10074800900004EC8DF0120477AE34AF357C007D58
:100758000A120403AB36AA37A938900006EC8DF0CC
:060768001204777F01225C
:040A29008C298D2A5D
:100A2D00EF6003120C817B007A00792BAF2AAE297F
:100A3D001206988F33E52C120C63E52E120C63E52C
:100A4D00336011E5302430FF120C667F2E120C66D8
:100A5D00E53280077F2E120C66E5302430FF120C34
:010A6D006622
:010A6E002265
:100AD7008B298A2A892BEF6003120C81AB29AA2A5A
:100AE700A92B1203D8FF6010120C667401252BF591
:090AF7002BE4352AF52A80E422E3
:0F0B6B008F807F057E00120B7AD2B47F057E004B
:0D0B7A00EFD3940040077E6EDEFE1F80F377
:010B8700224B
:030C63002430FF3B
:0C0C6600C2B4D2B5120B6BC2B4C2B522EE
:0A0C8100C2B4C2B5120B6BC2B4225C
:100B8800C2A6C2A77F38120C817F0C120C817F0687
:0D0B9800120C817F01120C817F80020C8104
:040C970050574D0065
:080AC100014301014200C101E3
:100C3F00EF24FE6008047009D2A4C2A522C2A4D278
:020C4F00A522DC
:100B0000200124E542C395435004D2A68017E54254
:100B1000C39543400BE542D394325004C2A68005EE
:080B2000D2A6E4F542054222D1
:100BC200C2A67F01120C3F752CFF752D0B752E00EE
:0C0BD2007BFF7A0C7997120888020C92C5
:100C5100EFD39432500280027F328F43E4F542C2D7
:020C610001226E
:050C9200C2A6D2012200
:100C1200EF4E60147DC87C00ED1D70011CED4C7020
:080C2200F7EF1F70EB1E80E8E4
:010C2A0022A7
:100B4C00C2A27F677E00EF1F70011EEF4E70F7D2BE
:0E0B5C00A27E007F04EF1F70011EEF4E70F7A7
:010B6A002268
:100B2800C2A20FBF0000D2A20FBF00000FBF00007B
:100B3800A2A292027E007F08EF1F70011EEF4E7086
:030B4800F7A2020F
:010B4B002287
:100BA500E4FD7C01120B28E433FFC4333333548056
:0C0BB500FEEDC3134EFD0CBC09EAAF05B9
:010BC1002211
:0C093700120B4C7F017E00120C127FCCD2
:100943007E01EF139202EFC313FF30021BC2A20B0F
:10095300BB00000BBB0000D2A27A007B08EB1B702C
:10096300011AEB4A70F7801BC2A27A007B08EB1BCB
:1009730070011AEB4A70F7D2A20BBB00010A0BBB42
:0709830000010A0EBE09BBD2
:01098A00224A
:080003001209377F4402094392
:1009DD001209377FBE120943120BA5AB07120BA5E7
:1009ED00EFFEEBFFFDAC06E412031EE4FBFA79808B
:1009FD00783D1201068F2C8E2B8D2A8C29E4FFFE5B
:100A0D007D207C41AB2CAA2BA92AA829120106E432
:0B0A1D00FBFAF9783F12001512035796
:010A280022AB
:070C8B001200031209DD2233
:0D0AC900011EEE01080002090001010B01F1
:100A6F00E4F539F53AAF3AEF75F006A4240FF8869E
:100A7F000308E6FA08E64A4B6011EF75F006A42466
:100A8F000FF808E6FA08E6F91204B2053AE53A70EB
:0E0A9F00020539C39403E5396480948040C792
:010AAD002226
:100BDE007C007D051204038E098F0AD2AFD2A9754F
:0B0BEE008901851E8C85088AD28C22AC
:0F0C72007C007D051204038E098F0AE4F50B2226
:060888008B298A2A892B4E
:10088E00E4FFFEEF75F006A4240FF8860308E6FADF
:10089E0008E64A4B702CAA2DA92EEF75F006A4245B
:1008AE000FF8A62C08A60208A601AA2AA92BEF75F6
:1008BE00F006A4240CF8A62908A60208A601E4FE58
:1008CE00FF220FBF00010EEF64034E70B67EFF7F56
:0108DE00FF1A
:0108DF0022F6
:03000B0002098B5C
:10098B00C0E0C0F0C083C082C0D075D000C000C032
:10099B0001C002C003C004C005C006C007851E8C81
:1009AB0085088AC3E50B950AE495094008750B0188
:1009BB00120A6F8002050BD007D006D005D004D0E9
:1009CB0003D002D001D000D0D0D082D083D0F0D0D1
:0209DB00E03208
:10000E000203C3E86480F8E933E83360110460F05A
:10001E00ED33EC337009E8FCE9FDEAFEEBFF220458
:10002E0060DED3EB9FEA9EE99DE8C2E78CF0C2F753
:10003E0095F0400CE8CCF8E9CDF9EACEFAEBCFFB1F
:10004E0012038E85D0F05804700320D5B3E80470E7
:10005E00075002B2D50203CD92D5EC0460F7E4CC82
:10006E00C0E0C398F8603B94186008400DD0E0FBE8
:10007E000203A5E4FBFAC9FC8028E830E406E4C9D3
:10008E00FBE4CAFCE830E305E4C9CACBFCE854073C
:10009E006010F8C3E913F9EA13FAEB13FBEC13FC47
:1000AE00D8F130F52FC3E49CFCEF9BFFEE9AFEEDEA
:1000BE0099FDD0E0FBEF4E4D4C701222DB03020394
:1000CE00CAEC2CFCEF33FFEE33FEED33FDED30E7E3
:1000DE00EB0203A5EF2BFFEE3AFEED39FDD0E0FB70
:1000EE0050130BBB00030203CDED13FDEE13FEEF19
:0800FE0013FFEC13FC0203A543
:10010600EC4D6011E8497017ED33EC3304600DE4F3
:10011600FCFFFEFD22E933E8330470F80203C31244
:10012600038E58046009E4CC248150062850090245
:1001360003CD2840030203CAC0E0EB4A7044B980ED
:1001460006D0E0FB0203B9EF4E701CBD8008EBFF42
:10015600EAFEE9FD80EBE98DF0A4FEE5F00201EF91
:10016600E9CDF9EAFEEBFFEF89F0A4FCE5F0CE89D4
:10017600F0A42EFFE435F0CD89F0A42DFEE435F091
:100186008067EF4E7005BD80D780C3EF8BF0A4ACBF
:10019600F0EE8BF0A42CFCE435F0F8EF8AF0A42CFA
:1001A600E5F038FCE433CB8DF0A42CFCE5F03BF80D
:1001B600EE8AF0A42CFCE5F038F8E433CF89F0A4FD
:1001C6002CFCE5F038CF3400CE89F0A42FFFE5F003
:1001D6003EFEE433C98DF0A42EFEE5F039CD8AF05B
:1001E600A42FFFE5F03EFEE43DFD33D0E0FB5007D3
:1001F6000BBB000F0203CDEC2CFCEF33FFEE33FEFE
:06020600ED33FD0203A52B
:10020C000203CDEC5D046005E8590470030203C3DE
:10021C0012038E580460F6EC4860F2EC7004FDFE9C
:10022C00FF22C860DB2481C85009C39860025006C5
:10023C000203CA9850CAF582E9294B4A7005AB8271
:10024C000203B975F0007C1A7880C3EF9BEE9AED2F
:10025C0099400DC3EF9BFFEE9AFEED99FDE842F03D
:10026C00DC23ACF0D0E0FFD0E0FED0E0FDAB822090
:10027C00E7101BEB60BAEC2CFCEF33FFEE33FEED1A
:10028C0033FD0203A5E803F830E705C0F075F00074
:10029C00EF2FFFEE33FEED33FD40B830E7C280AAFE
:1002AC0074F8CC6480CCC86480C8F582046043C305
:1002BC00EB9FF5F0EA9E42F0E99D42F0E89C45F098
:1002CC0060305018E5825FFFE582F42B5582FB50BD
:1002DC00210ABA001D09B90019088016E5825BFBDA
:1002EC00E582F42F5582FF50090EBE00050DBD00AE
:1002FC00010CC3EB9FF5F0EA9E42F0E99D42F0E859
:0D030C009C45F06007CC4820E701B3EC22CF
:1003190075F020800E75F010800575F0087D007E5F
:10032900007F003392D530D5031204A4EC3340107A
:10033900EF33FFEE33FEED33FDEC33FCD5F0ED2268
:0E034900E5F0247EA2D513CC92E7CDCEFF22A4
:10035700EDD2E7CD33EC3392D524814006E4FFFE9E
:10036700FDFC22FCE4CFCECDCC24E0501174FF80FD
:10037700EDC3CC13CCCD13CDCE13CECF13CF04709A
:07038700F030D5DE0204A4F2
:10038E00E9D2E7C933E833F892D5EDD2E7CD33ECB5
:07039E0033FC5002B2D5222E
:1003A500EC30E7100FBF000C0EBE00080DBD0004B9
:1003B5000BEB6014A2D5EB13FCED92E7FD2274FF65
:1003C500FCFDFEFF22E480F8A2D574FF13FC7D80BE
:0303D500E480EFD2
:100808000204B8E493A3F8E493A34003F68001F24A
:1008180008DFF48029E493A3F85407240CC8C333F1
:10082800C4540F4420C8834004F456800146F6DFC0
:10083800E4800B0102040810204080900AAEE47E98
:10084800019360BCA3FF543F30E509541FFEE493B5
:10085800A360010ECF54C025E060A840B8E493A37C
:10086800FAE493A3F8E493A3C8C582C8CAC583CAA7
:10087800F0A3C8C582C8CAC583CADFE9DEE780BE5F
:010AD600001F
:1003D800BB010689828A83E0225002E722BBFE0223
:0903E800E32289828A83E4932256
:1003F100EF8DF0A4A8F0CF8CF0A428CE8DF0A42E20
:02040100FE22D9
:10040300BC000BBE0029EF8DF084FFADF022E4CCDD
:10041300F875F008EF2FFFEE33FEEC33FCEE9DECA6
:10042300984005FCEE9DFE0FD5F0E9E4CEFD22EDEC
:10043300F8F5F0EE8420D21CFEADF075F008EF2F36
:10044300FFED33FD4007985006D5F0F222C398FD27
:050453000FD5F0EA22C4
:10045800BB010A89828A83F0E5F0A3F0225006F7EF
:0F04680009A7F01922BBFE06F3E5F009F31922EC
:10047700F8BB0111E58229F582E5833AF583E8F0B7
:10048700E5F0A3F0225009E92582C8F608A6F02274
:0D049700BBFE09E92582C8F2E5F008F2225B
:0E04A400C3E49FFFE49EFEE49DFDE49CFC2269
:0604B2008A838982E473D5
:00000001FF
