:100C2C004C3A00483A004C4544004B455900546539
:040C3C006D703A009D
:100AAF00C100023C001E023E00190140000141003E
:030ABF00013B00F8
:100BFA00300015AF3B053BEFC39464400BE4F53B73
:080C0A003093028001D39293A4
:010C120022BF
:1008E1007F0C120C827BFF7A0C792C7FC0120AD804
:1008F100AE3EAF3F7C007D0A1203F1AC06AD07E4CA
:10090100FF120A2A7FDF120C677F43120C677BFFFD
:100911007A0C792FE4FF120AD8AE3CAF3D7C007D02
:100921000A1203F1AC06AD07E4FF120A2A7FDF12B7
:070931000C677F43020C6715
:10076F00C2B7D2B0D2B1D2B220B0267F057E00126E
:10077F000B7B20B01CE5411460111460092402703A
:10078F000D75410280087541018003E4F54130B0D9
:10079F00FD20B12B7F057E00120B7B20B121E5419F
:1007AF0024FE600D047012053DE53D700C053C8084
:1007BF0008053FE53F7002053E1208E130B1FD200C
:1007CF00B22B7F057E00120B7B20B221E54124FE68
:1007DF00600D047012E53D153D700C153C8008E569
:0E07EF003F153F7002153E1208E130B2FD22A8
:1004B800E4F526F525F524F523F52AF529F528F59B
:1004C80027120B897F057E00120BDF120BC3752ED6
:1004D800FF752F0B7530FA7BFF7A0C793212088979
:1004E800752EFF752F0775306F7BFF7A0C793612E2
:1004F80008891208E1E541600302066D120C8CAC14
:1005080006AD07E412031EE4FBFA792078411202D3
:100518000F8F268E258D248C23E4FFFE7D707C4270
:10052800AB26AA25A924A8231202AC600250C6ACA7
:100538003EAD3FE412031EAB26AA25A924A8231228
:1005480002AC601A4018AC3CAD3DE412031EAB2669
:10055800AA25A924A8231202AC500302062DD20012
:10056800C2A3AC3EAD3FE412031EAB26AA25A924C4
:10057800A8231202AC600250267F02120C40AC3E47
:10058800AD3FE412031EAB26AA25A924A823120016
:1005980011C004C005C006C007AC3EAD3F802C7F2B
:1005A80001120C40AC3CAD3DE412031EA804A905A1
:1005B800AA06AB07AF26AE25AD24AC23120011C0A6
:1005C80004C005C006C007AC3CAD3DE412031EA83C
:1005D80004A905AA06AB07D007D006D005D0041297
:1005E800020F8F2A8E298D288C27E4FFFE7D807CC0
:1005F8003FAB2AAA29A928A8271202AC6006400402
:100608007F108029E4FFFE7D487C42AB2AAA29A9F5
:1006180028A827120106E4FBFA7940784012020F55
:100628001203578008C200D293D2A3E4FF120C52DF
:100638007BFF7A0C793A7F80120AD8E4FFFE7D208E
:100648007C41AB26AA25A924A82312010612035728
:10065800AD07AC06E4FF120A2A7FDF120C677F435E
:10066800120C678003120C93E54114600E14601499
:10067800240260030204FD7F0C80107FC8120C82E4
:100688007F0F80077FC0120C827F0F120C8202043A
:01069800FD64
:100699008E368F378B388A39893AD3E53794E7E52F
:1006A900369403504B7C007D64120403EE8FF012E4
:1006B9000458AE36AF377C007D0A1204037C007DF6
:1006C9000A120403AB38AA39A93A900002EC8DF05A
:1006D900120477AE36AF377C007D0A120403AB38BB
:1006E900AA39A93A900004EC8DF01204777F002210
:1006F900AE36AF377C037DE8120403AB38AA39A9BB
:100709003AEE8FF0120458AE36AF377C007D641292
:1007190004037C007D0A120403AB38AA39A93A9074
:100729000002EC8DF0120477AE36AF377C007D0AFB
:100739001204037C007D0A120403AB38AA39A93AD2
:10074900900004EC8DF0120477AE36AF377C007D53
:100759000A120403AB38AA39A93A900006EC8DF0C5
:060769001204777F01225B
:040A2A008C2B8D2C58
:100A2E00EF6003120C827B007A00792DAF2CAE2B77
:100A3E001206998F35E52E120C64E530120C64E522
:100A4E00356011E5322430FF120C677F2E120C67D1
:100A5E00E53480077F2E120C67E5322430FF120C2E
:010A6E006720
:010A6F002264
:100AD8008B2B8A2C892DEF6003120C82AB2BAA2C4E
:100AE800A92D1203D8FF6010120C677401252DF58B
:090AF8002DE4352CF52C80E422DC
:0F0B6C008F807F057E00120B7BD2B47F057E0049
:0D0B7B00EFD3940040077E6EDEFE1F80F376
:010B8800224A
:030C64002430FF3A
:0C0C6700C2B4D2B5120B6CC2B4C2B522EC
:0A0C8200C2B4C2B5120B6CC2B4225A
:100B8900C2A6C2A77F38120C827F0C120C827F0684
:0D0B9900120C827F01120C827F80020C8200
:040C980050574D0064
:080AC200014301014200C101E2
:100C4000EF24FE6008047009D2A4C2A522C2A4D277
:020C5000A522DB
:100B0100200124E542C395435004D2A68017E54253
:100B1100C39543400BE542D394325004C2A68005ED
:080B2100D2A6E4F542054222D0
:100BC300C2A67F01120C40752EFF752F0B753001E5
:0C0BD3007BFF7A0C7998120889020C93C1
:100C5200EFD39432500280027F328F43E4F542C2D6
:020C620001226D
:050C9300C2A6D20122FF
:0D0ACA00011EEE01080002090001010B01F0
:100A7000E4F521F522AF22EF75F006A4240FF886E5
:100A80000308E6FA08E64A4B6011EF75F006A42465
:100A90000FF808E6FA08E6F91204B20522E522701A
:0E0AA000020521C39403E5216480948040C7C1
:010AAE002225
:100BDF007C007D051204038E098F0AD2AFD2A9754E
:0B0BEF008901851E8C85088AD28C22AB
:0F0C73007C007D051204038E098F0AE4F50B2225
:060889008B2B8A2C892D47
:10088F00E4FFFEEF75F006A4240FF8860308E6FADE
:10089F0008E64A4B702CAA2FA930EF75F006A42456
:1008AF000FF8A62E08A60208A601AA2CA92DEF75EF
:1008BF00F006A4240CF8A62B08A60208A601E4FE55
:1008CF00FF220FBF00010EEF64034E70B67EFF7F55
:0108DF00FF19
:0108E00022F5
:03000B0002098C5B
:10098C00C0E0C0F0C083C082C0D075D000C000C031
:10099C0001C002C003C004C005C006C007851E8C80
:1009AC0085088AC3E50B950AE495094008750B0187
:1009BC00120A708002050BD007D006D005D004D0E7
:1009CC0003D002D001D000D0D0D082D083D0F0D0D0
:0209DC00E03207
:100C1300EF4E60147DC87C00ED1D70011CED4C701F
:080C2300F7EF1F70EB1E80E8E3
:010C2B0022A6
:100B4D00C2A27F677E00EF1F70011EEF4E70F7D2BD
:0E0B5D00A27E007F04EF1F70011EEF4E70F7A6
:010B6B002267
:100B2900C2A20FBF0000D2A20FBF00000FBF00007A
:100B3900A2A292027E007F08EF1F70011EEF4E7085
:030B4900F7A2020E
:010B4C002286
:100BA600E4FD7C01120B29E433FFC4333333548054
:0C0BB600FEEDC3134EFD0CBC09EAAF05B8
:010BC2002210
:0C093800120B4D7F017E00120C137FCCCF
:100944007E01EF139202EFC313FF30021BC2A20B0E
:10095400BB00000BBB0000D2A27A007B08EB1B702B
:10096400011AEB4A70F7801BC2A27A007B08EB1BCA
:1009740070011AEB4A70F7D2A20BBB00010A0BBB41
:0709840000010A0EBE09BBD1
:01098B002249
:080003001209387F4402094490
:1009DE001209387FBE120944120BA6AB07120BA6E2
:1009EE00EFFEEBFFFDAC06E412031EE4FBFA79808A
:1009FE00783D1201068F2E8E2D8D2C8C2BE4FFFE52
:100A0E007D207C41AB2EAA2DA92CA82B120106E429
:0B0A1E00FBFAF9783F12001512035795
:010A290022AA
:070C8C001200031209DE2231
:10000E000203C3E86480F8E933E83360110460F05A
:10001E00ED33EC337009E8FCE9FDEAFEEBFF220458
:10002E0060DED3EB9FEA9EE99DE8C2E78CF0C2F753
:10003E0095F0400CE8CCF8E9CDF9EACEFAEBCFFB1F
:10004E0012038E85D0F05804700320D5B3E80470E7
:10005E00075002B2D50203CD92D5EC0460F7E4CC82
:10006E00C0E0C398F8603B94186008400DD0E0FBE8
:10007E000203A5E4FBFAC9FC8028E830E406E4C9D3
:10008E00FBE4CAFCE830E305E4C9CACBFCE854073C
:10009E006010F8C3E913F9EA13FAEB13FBEC13FC47
:1000AE00D8F130F52FC3E49CFCEF9BFFEE9AFEEDEA
:1000BE0099FDD0E0FBEF4E4D4C701222DB03020394
:1000CE00CAEC2CFCEF33FFEE33FEED33FDED30E7E3
:1000DE00EB0203A5EF2BFFEE3AFEED39FDD0E0FB70
:1000EE0050130BBB00030203CDED13FDEE13FEEF19
:0800FE0013FFEC13FC0203A543
:10010600EC4D6011E8497017ED33EC3304600DE4F3
:10011600FCFFFEFD22E933E8330470F80203C31244
:10012600038E58046009E4CC248150062850090245
:1001360003CD2840030203CAC0E0EB4A7044B980ED
:1001460006D0E0FB0203B9EF4E701CBD8008EBFF42
:10015600EAFEE9FD80EBE98DF0A4FEE5F00201EF91
:10016600E9CDF9EAFEEBFFEF89F0A4FCE5F0CE89D4
:10017600F0A42EFFE435F0CD89F0A42DFEE435F091
:100186008067EF4E7005BD80D780C3EF8BF0A4ACBF
:10019600F0EE8BF0A42CFCE435F0F8EF8AF0A42CFA
:1001A600E5F038FCE433CB8DF0A42CFCE5F03BF80D
:1001B600EE8AF0A42CFCE5F038F8E433CF89F0A4FD
:1001C6002CFCE5F038CF3400CE89F0A42FFFE5F003
:1001D6003EFEE433C98DF0A42EFEE5F039CD8AF05B
:1001E600A42FFFE5F03EFEE43DFD33D0E0FB5007D3
:1001F6000BBB000F0203CDEC2CFCEF33FFEE33FEFE
:06020600ED33FD0203A52B
:10020C000203CDEC5D046005E8590470030203C3DE
:10021C0012038E580460F6EC4860F2EC7004FDFE9C
:10022C00FF22C860DB2481C85009C39860025006C5
:10023C000203CA9850CAF582E9294B4A7005AB8271
:10024C000203B975F0007C1A7880C3EF9BEE9AED2F
:10025C0099400DC3EF9BFFEE9AFEED99FDE842F03D
:10026C00DC23ACF0D0E0FFD0E0FED0E0FDAB822090
:10027C00E7101BEB60BAEC2CFCEF33FFEE33FEED1A
:10028C0033FD0203A5E803F830E705C0F075F00074
:10029C00EF2FFFEE33FEED33FD40B830E7C280AAFE
:1002AC0074F8CC6480CCC86480C8F582046043C305
:1002BC00EB9FF5F0EA9E42F0E99D42F0E89C45F098
:1002CC0060305018E5825FFFE582F42B5582FB50BD
:1002DC00210ABA001D09B90019088016E5825BFBDA
:1002EC00E582F42F5582FF50090EBE00050DBD00AE
:1002FC00010CC3EB9FF5F0EA9E42F0E99D42F0E859
:0D030C009C45F06007CC4820E701B3EC22CF
:1003190075F020800E75F010800575F0087D007E5F
:10032900007F003392D530D5031204A4EC3340107A
:10033900EF33FFEE33FEED33FDEC33FCD5F0ED2268
:0E034900E5F0247EA2D513CC92E7CDCEFF22A4
:10035700EDD2E7CD33EC3392D524814006E4FFFE9E
:10036700FDFC22FCE4CFCECDCC24E0501174FF80FD
:10037700EDC3CC13CCCD13CDCE13CECF13CF04709A
:07038700F030D5DE0204A4F2
:10038E00E9D2E7C933E833F892D5EDD2E7CD33ECB5
:07039E0033FC5002B2D5222E
:1003A500EC30E7100FBF000C0EBE00080DBD0004B9
:1003B5000BEB6014A2D5EB13FCED92E7FD2274FF65
:1003C500FCFDFEFF22E480F8A2D574FF13FC7D80BE
:0303D500E480EFD2
:030000000207FDF7
:0C07FD00787FE4F6D8FD758143020844C3
:1003D800BB010689828A83E0225002E722BBFE0223
:0903E800E32289828A83E4932256
:1003F100EF8DF0A4A8F0CF8CF0A428CE8DF0A42E20
:02040100FE22D9
:10040300BC000BBE0029EF8DF084FFADF022E4CCDD
:10041300F875F008EF2FFFEE33FEEC33FCEE9DECA6
:10042300984005FCEE9DFE0FD5F0E9E4CEFD22EDEC
:10043300F8F5F0EE8420D21CFEADF075F008EF2F36
:10044300FFED33FD4007985006D5F0F222C398FD27
:050453000FD5F0EA22C4
:10045800BB010A89828A83F0E5F0A3F0225006F7EF
:0F04680009A7F01922BBFE06F3E5F009F31922EC
:10047700F8BB0111E58229F582E5833AF583E8F0B7
:10048700E5F0A3F0225009E92582C8F608A6F02274
:0D049700BBFE09E92582C8F2E5F008F2225B
:0E04A400C3E49FFFE49EFEE49DFDE49CFC2269
:0604B2008A838982E473D5
:100809000204B8E493A3F8E493A34003F68001F249
:1008190008DFF48029E493A3F85407240CC8C333F0
:10082900C4540F4420C8834004F456800146F6DFBF
:10083900E4800B0102040810204080900AAFE47E96
:10084900019360BCA3FF543F30E509541FFEE493B4
:10085900A360010ECF54C025E060A840B8E493A37B
:10086900FAE493A3F8E493A3C8C582C8CAC583CAA6
:10087900F0A3C8C582C8CAC583CADFE9DEE780BE5E
:010AD700001E
:00000001FF
