:03000000020AA34E
:0C0AA300787FE4F6D8FD75815E020AEA57
:100920008E4F8F508B518A528953D3E55094E7E50F
:100930004F9403504B7C007D641204F9EE8FF0124B
:100940000586AE4FAF507C007D0A1204F97C007D15
:100950000A1204F9AB51AA52A953900002EC8DF08F
:100960001205A5AE4FAF507C007D0A1204F9AB51C1
:10097000AA52A953900004EC8DF01205A57F002225
:10098000AE4FAF507C037DE81204F9AB51AA52A9D7
:1009900053EE8FF0120586AE4FAF507C007D64128F
:1009A00004F97C007D0A1204F9AB51AA52A95390B4
:1009B0000002EC8DF01205A5AE4FAF507C007D0A11
:1009C0001204F97C007D0A1204F9AB51AA52A95312
:1009D000900004EC8DF01205A5AE4FAF507C007D69
:1009E0000A1204F9AB51AA52A953900006EC8DF0FB
:0609F0001205A57F0122A3
:040D05008C448D4548
:100D0900EF6003120F4F7B007A007946AF45AE447E
:100D19001209208F4EE547120F31E549120F31E5CF
:100D29004E6011E54B2430FF120F347F2E120F3421
:100D3900E54D80077F2E120F34E54B2430FF120F4B
:010D49003475
:010D4A002286
:100DEE008B448A458946EF6003120F4FAB44AA45E8
:100DFE00A9461204CEFF6010120F3474012546F579
:090E0E0046E43545F54580E42277
:0F0E68008F807F057E00120E77D2B77F057E0048
:0D0E7700EFD3940040077E6EDEFE1F80F377
:010E8400224B
:030F31002430FF6A
:0C0F3400C2B7D2B5120E68C2B7C2B52217
:0A0F4F00C2B7C2B5120E68C2B72285
:100EBE00C2B67F38120F4F7F0C120F4F7F06120FE4
:0B0ECE004F7F01120F4F7F80020F4F7B
:100D8A00C290D29200C29200D29275A0FFD2910074
:100D9A00C29100AFA07E00D291AD077C00E412039D
:100DAA001EE4FBFA797F784312020F7B007A4079BE
:090DBA009C784512010612035752
:010DC300220D
:040F590050574D00A0
:080E1700015E01015D00C10054
:100F0D00EF24FE6008047009D294C29522C294D2D7
:020F1D0095221B
:100E4000200024E55DC3955E5004D2968017E55DD1
:100E5000C3955E400BE55DD394325004C296800585
:080E6000D296E4F55D055D2268
:100EA200C2967F01120F0D7543FF75440E754540C2
:0C0EB2007BFF7A0F7959120BBB02000382
:100F1F00EFD39432500280027F328F5EE4F55DC2D0
:020F2F0000229E
:05000300C296D20022AC
:100E8500AD07AC06E412031EE4FBFA793078411293
:0D0E9500020FE4FBFA7920784012020F22D0
:0809F6008B4A8A4B894C8D4DA0
:1009FE00E4F54EE54EC3954D5079E4F54FE54FC302
:100A0E00954E506BAB4AAA4BA94C75F002E54FA41C
:100A1E00F58285F08312054EFFAEF075F002E54EBD
:100A2E00A4F58285F08312054EFDACF0D39FEC9EAB
:100A3E0040398C508D5175F002E54FA4F58285F04A
:100A4E008312054EFFAEF075F002E54EA4F58285D9
:100A5E00F083EE8FF01205A575F002E54FA4F58236
:100A6E0085F083E5508551F01205A5054F808E0562
:100A7E004E8080AB4AAA4BA94CE54D24FFFFE434CF
:100A8E00FFC313EF1375F002A4F58285F0831205F0
:040A9E004EFFAEF069
:010AA2002231
:1007B1001209F6AC06AD07E412031E8F438E428D7B
:1007C100418C40120357120E858F438E428D418C0E
:1007D100401203578E488F49C3E5499464E5489414
:1007E100005004D2018002C201C3E5499460E5488A
:1007F1009400500F75470075464075454275444455
:10080100020917C3E5499464E548940050297F39EA
:100811007E457D237C40AB43AA42A941A8401201F9
:1008210006A804A905AA06AB077FB87E1F7D7F7CB9
:100831004312001102090FC3E5499470E548940081
:1008410050217FCC7E7F7D247C40AB43AA42A941CD
:10085100A8401201067B6A7A86798078C312001556
:1008610002090FC3E549947BE548940050217FE7D5
:100871007EFB7D257C40AB43AA42A941A8401201E1
:10088100067B207AD2798178C312001502090FC341
:10089100E5499487E548940050207F917E7E7D272D
:1008A1007C40AB43AA42A941A8401201067BE37AEE
:1008B10046798378C31200158054C3E549948BE5CA
:1008C10048940050207F6C7E097D297C40AB43AA6F
:1008D10042A941A8401201067BCC7AE5798478C30C
:1008E1001200158029C3E549948BE5489400402600
:1008F1007F6C7E097D297C40AB43AA42A941A84077
:100901001201067BCC7AE5798478C31200158F47F2
:0E0911008E468D458C44AF47AE46AD45AC4496
:01091F0022B5
:03000800A2012230
:0D0E1F00011EEE01080002090001010B0197
:100D4B00E4F554F555AF55EF75F006A4240FF8866E
:100D5B000308E6FA08E64A4B6011EF75F006A42487
:100D6B000FF808E6FA08E6F91205E00555E55570A7
:0E0D7B00020554C39403E5546480948040C77D
:010D89002247
:100ED9007C007D051204F98E098F0AD2AFD2A9755B
:0B0EE9008901851E8C85088AD28C22AE
:0F0F40007C007D051204F98E098F0AE4F50B225F
:060BBB008B408A418942D3
:100BC100E4FFFEEF75F006A4240FF8860308E6FAA9
:100BD10008E64A4B702CAA44A945EF75F006A424F7
:100BE1000FF8A64308A60208A601AA41A942EF757B
:100BF100F006A4240CF8A64008A60208A601E4FE0B
:100C0100FF220FBF00010EEF64034E70B67EFF7F1F
:010C1100FFE3
:010C120022BF
:03000B00020C6A7A
:100C6A00C0E0C0F0C083C082C0D075D000C000C050
:100C7A0001C002C003C004C005C006C007851E8C9F
:100C8A0085088AC3E50B950AE495094008750B01A6
:100C9A00120D4B8002050BD007D006D005D004D028
:100CAA0003D002D001D000D0D0D082D083D0F0D0EF
:020CBA00E03226
:100DC4004C3A00483A0054656D703A004C45440072
:100DD4004B45590000000000000000000000000026
:0A0DE4000000000000000000000005
:100E2C00C102025700320259001E015B00015C0036
:030E3C000156005C
:100EF400300215AF560556EFC39464400BE4F55623
:080F04003093028001D39293A7
:010F0C0022C2
:100C13007F0C120F4F7BFF7A0D79C47FC0120DEE4C
:100C2300AE59AF5A7C007D0A1204E7AC06AD07E467
:100C3300FF120D057FDF120F347F43120F347BFF4A
:100C43007A0D79C7E4FF120DEEAE57AF587C007DE5
:100C53000A1204E7AC06AD07E4FF120D057FDF12AD
:070C63000F347F43020F3440
:100CBC008F438E428D418C407BFF7A0D79CA7F80A9
:100CCC00120DEE12000840047F2B80027F2D120FB4
:100CDC0034E4FFFE7D207C41AB43AA42A941A840ED
:100CEC00120106120357AD07AC06E4FF120D057F87
:090CFC00DF120F347F43020F34B4
:100B2F00D2B0D2B1D2B220B0267F057E00120E779E
:100B3F0020B01CE55C1460111460092402700D755F
:100B4F005C028008755C018003E4F55C30B0FD2029
:100B5F00B12B7F057E00120E7720B121E55C24FEBC
:100B6F00600D0470120558E558700C055780080584
:100B7F005AE55A70020559120C1330B1FD20B22BF1
:100B8F007F057E00120E7720B221E55C24FE600DFA
:100B9F00047012E5581558700C15578008E55A1552
:0C0BAF005A70021559120C1330B2FD22CE
:1005E600E4F524F523F522F521F528F527F526F57A
:1005F60025782A7C00FD7BFF7A0D79D8FE7F1612BE
:1006060004A8120EBE7F057E00120ED9120EA27528
:1006160043FF75440E7545F47BFF7A0D79D0120BB6
:10062600BB7543FF75440B75452F7BFF7A0D79D457
:10063600120BBB120C13E55C6003020785F5291249
:100646000D8AE52925E0242AF8A60608A6077F05CF
:100656007E00120E770529E529C3940B40E17B0045
:100666007A00792A7D0B1207B1E4FBFA798078BF0C
:100676001200158F248E238D228C21AC59AD5AE49D
:1006860012031EAB24AA23A922A8211202AC601AC7
:100696004018AC57AD58E412031EAB24AA23A92276
:1006A600A8211202AC500302076DD202C297AC59C0
:1006B600AD5AE412031EAB24AA23A922A8211202D2
:1006C600AC600250267F02120F0DAC59AD5AE412EF
:1006D600031EAB24AA23A922A821120011C004C01C
:1006E60005C006C007AC59AD5A802C7F01120F0D0C
:1006F600AC57AD58E412031EA804A905AA06AB0719
:10070600AF24AE23AD22AC21120011C004C005C037
:1007160006C007AC57AD58E412031EA804A905AAE3
:1007260006AB07D007D006D005D00412020F8F28DB
:100736008E278D268C25E4FFFE7D807C3FAB28AA84
:1007460027A926A8251202AC600640047F32801F26
:10075600E4FFFE7D487C42AB28AA27A926A82512DD
:1007660001061203578008C202D293D297E4FF1201
:100776000F1FAF24AE23AD22AC21120CBC80031296
:100786000003E55C14600E14601424026003020684
:100796003C7F0C80107FC8120F4F7F0F80077FC0F1
:0B07A600120F4F7F0F120F4F02063C96
:10000E000203C3E86480F8E933E83360110460F05A
:10001E00ED33EC337009E8FCE9FDEAFEEBFF220458
:10002E0060DED3EB9FEA9EE99DE8C2E78CF0C2F753
:10003E0095F0400CE8CCF8E9CDF9EACEFAEBCFFB1F
:10004E0012038E85D0F05804700320D5B3E80470E7
:10005E00075002B2D50203CD92D5EC0460F7E4CC82
:10006E00C0E0C398F8603B94186008400DD0E0FBE8
:10007E000203A5E4FBFAC9FC8028E830E406E4C9D3
:10008E00FBE4CAFCE830E305E4C9CACBFCE854073C
:10009E006010F8C3E913F9EA13FAEB13FBEC13FC47
:1000AE00D8F130F52FC3E49CFCEF9BFFEE9AFEEDEA
:1000BE0099FDD0E0FBEF4E4D4C701222DB03020394
:1000CE00CAEC2CFCEF33FFEE33FEED33FDED30E7E3
:1000DE00EB0203A5EF2BFFEE3AFEED39FDD0E0FB70
:1000EE0050130BBB00030203CDED13FDEE13FEEF19
:0800FE0013FFEC13FC0203A543
:10010600EC4D6011E8497017ED33EC3304600DE4F3
:10011600FCFFFEFD22E933E8330470F80203C31244
:10012600038E58046009E4CC248150062850090245
:1001360003CD2840030203CAC0E0EB4A7044B980ED
:1001460006D0E0FB0203B9EF4E701CBD8008EBFF42
:10015600EAFEE9FD80EBE98DF0A4FEE5F00201EF91
:10016600E9CDF9EAFEEBFFEF89F0A4FCE5F0CE89D4
:10017600F0A42EFFE435F0CD89F0A42DFEE435F091
:100186008067EF4E7005BD80D780C3EF8BF0A4ACBF
:10019600F0EE8BF0A42CFCE435F0F8EF8AF0A42CFA
:1001A600E5F038FCE433CB8DF0A42CFCE5F03BF80D
:1001B600EE8AF0A42CFCE5F038F8E433CF89F0A4FD
:1001C6002CFCE5F038CF3400CE89F0A42FFFE5F003
:1001D6003EFEE433C98DF0A42EFEE5F039CD8AF05B
:1001E600A42FFFE5F03EFEE43DFD33D0E0FB5007D3
:1001F6000BBB000F0203CDEC2CFCEF33FFEE33FEFE
:06020600ED33FD0203A52B
:10020C000203CDEC5D046005E8590470030203C3DE
:10021C0012038E580460F6EC4860F2EC7004FDFE9C
:10022C00FF22C860DB2481C85009C39860025006C5
:10023C000203CA9850CAF582E9294B4A7005AB8271
:10024C000203B975F0007C1A7880C3EF9BEE9AED2F
:10025C0099400DC3EF9BFFEE9AFEED99FDE842F03D
:10026C00DC23ACF0D0E0FFD0E0FED0E0FDAB822090
:10027C00E7101BEB60BAEC2CFCEF33FFEE33FEED1A
:10028C0033FD0203A5E803F830E705C0F075F00074
:10029C00EF2FFFEE33FEED33FD40B830E7C280AAFE
:1002AC0074F8CC6480CCC86480C8F582046043C305
:1002BC00EB9FF5F0EA9E42F0E99D42F0E89C45F098
:1002CC0060305018E5825FFFE582F42B5582FB50BD
:1002DC00210ABA001D09B90019088016E5825BFBDA
:1002EC00E582F42F5582FF50090EBE00050DBD00AE
:1002FC00010CC3EB9FF5F0EA9E42F0E99D42F0E859
:0D030C009C45F06007CC4820E701B3EC22CF
:1003190075F020800E75F010800575F0087D007E5F
:10032900007F003392D530D5031205D2EC3340104B
:10033900EF33FFEE33FEED33FDEC33FCD5F0ED2268
:0E034900E5F0247EA2D513CC92E7CDCEFF22A4
:10035700EDD2E7CD33EC3392D524814006E4FFFE9E
:10036700FDFC22FCE4CFCECDCC24E0501174FF80FD
:10037700EDC3CC13CCCD13CDCE13CECF13CF04709A
:07038700F030D5DE0205D2C3
:10038E00E9D2E7C933E833F892D5EDD2E7CD33ECB5
:07039E0033FC5002B2D5222E
:1003A500EC30E7100FBF000C0EBE00080DBD0004B9
:1003B5000BEB6014A2D5EB13FCED92E7FD2274FF65
:1003C500FCFDFEFF22E480F8A2D574FF13FC7D80BE
:0303D500E480EFD2
:100AAF000205E6E493A3F8E493A34003F68001F272
:100ABF0008DFF48029E493A3F85407240CC8C33348
:100ACF00C4540F4420C8834004F456800146F6DF17
:100ADF00E4800B0102040810204080900E17E47E82
:100AEF00019360BCA3FF543F30E509541FFEE4930C
:100AFF00A360010ECF54C025E060A840B8E493A3D3
:100B0F00FAE493A3F8E493A3C8C582C8CAC583CAFD
:100B1F00F0A3C8C582C8CAC583CADFE9DEE780BEB5
:010E3F0000B2
:1003D800E709F608DFFA8046E709F208DFFA803E07
:1003E80088828C83E709F0A3DFFA8032E309F608F4
:1003F800DFFA8078E309F208DFFA807088828C835C
:10040800E309F0A3DFFA806489828A83E0A3F6080F
:10041800DFFA805889828A83E0A3F208DFFA804CE9
:1004280080D280FA80C680D4806980F280338010C0
:1004380080A680EA809A80A880DA80E280CA803329
:1004480089828A83ECFAE493A3C8C582C8CCC583A1
:10045800CCF0A3C8C582C8CCC583CCDFE9DEE78071
:100468000D89828A83E493A3F608DFF9ECFAA9F0F0
:10047800EDFB2289828A83ECFAE0A3C8C582C8CC46
:10048800C583CCF0A3C8C582C8CCC583CCDFEADE5F
:10049800E880DB89828A83E493A3F208DFF980CCC1
:1004A80088F0EF60010E4E60C388F0ED2402B404BA
:1004B8000050B9F582EB2402B4040050AF23234561
:0604C8008223900428735A
:1004CE00BB010689828A83E0225002E722BBFE022C
:0904DE00E32289828A83E493225F
:1004E700EF8DF0A4A8F0CF8CF0A428CE8DF0A42E29
:0204F700FE22E3
:1004F900BC000BBE0029EF8DF084FFADF022E4CCE7
:10050900F875F008EF2FFFEE33FEEC33FCEE9DECAF
:10051900984005FCEE9DFE0FD5F0E9E4CEFD22EDF5
:10052900F8F5F0EE8420D21CFEADF075F008EF2F3F
:10053900FFED33FD4007985006D5F0F222C398FD30
:050549000FD5F0EA22CD
:10054E00BB0110E58229F582E5833AF583E0F5F0EB
:10055E00A3E0225009E92582F886F008E622BBFEC8
:10056E000AE92582F8E2F5F008E222E5832AF5830E
:08057E00E993F5F0A3E99322D3
:10058600BB010A89828A83F0E5F0A3F0225006F7C0
:0F05960009A7F01922BBFE06F3E5F009F31922BD
:1005A500F8BB0111E58229F582E5833AF583E8F088
:1005B500E5F0A3F0225009E92582C8F608A6F02245
:0D05C500BBFE09E92582C8F2E5F008F2222C
:0E05D200C3E49FFFE49EFEE49DFDE49CFC223A
:0605E0008A838982E473A6
:00000001FF
