:03000000020AC130
:0C0AC100787FE4F6D8FD75815C020B081C
:100D99004C3A00483A004C4544004B4559005465CB
:100DA9006D703A0000000000000000000000000023
:0A0DB9000000000000000000000030
:100DEC00C100025500320257001E015900015A0081
:030DFC000154009F
:100EA800300015AF540554EFC39464400BE4F55477
:080EB8003093028001D39293F4
:010EC000220F
:100C31007F0C120F1A7BFF7A0D79997FC0120DC3B9
:100C4100AE57AF587C007D0A1204E7AC06AD07E44D
:100C5100FF120CDA7FDF120EFF7F43120EFF7BFFC4
:100C61007A0D799CE4FF120DC3AE55AF567C007D21
:100C71000A1204E7AC06AD07E4FF120CDA7FDF12BB
:070C81000EFF7F43020EFF8E
:100B4D00D2B0D2B1D2B220B0267F057E00120E47B0
:100B5D0020B01CE55A1460111460092402700D7543
:100B6D005A028008755A018003E4F55A30B0FD2011
:100B7D00B12B7F057E00120E4720B121E55A24FED0
:100B8D00600D0470120556E556700C05558008056C
:100B9D0058E55870020557120C3130B1FD20B22BBB
:100BAD007F057E00120E4720B221E55A24FE600D0E
:100BBD00047012E5561556700C15558008E558153C
:0C0BCD005870021557120C3130B2FD2296
:1005E600E4F524F523F522F521F528F527F526F57A
:1005F60025782A7C00FD7BFF7A0D79ADFE7F1612E9
:1006060004A8120E727F057E00120E8D120EC175A1
:1006160043FF75440E7545A87BFF7A0D799F120B33
:10062600D97543FF75440B75454D7BFF7A0D79A34C
:10063600120BD9120C31E55A60030207A6F52912EE
:100646000D5FE52925E0242AF8A60608A607052950
:10065600E529C3940B40E87B007A00792A7D0B12CA
:1006660007CF8F248E238D228C21AC57AD58E412F0
:10067600031EAB24AA23A922A8211202AC601A40A9
:1006860018AC55AD56E412031EAB24AA23A922A822
:10069600211202AC500302075CD200C297AC57ADE0
:1006A60058E412031EAB24AA23A922A8211202ACE5
:1006B600600250267F02120EDAAC57AD58E41203E0
:1006C6001EAB24AA23A922A821120011C004C0052A
:1006D600C006C007AC57AD58802C7F01120EDAACAD
:1006E60055AD56E412031EA804A905AA06AB07AF2A
:1006F60024AE23AD22AC21120011C004C005C006F1
:10070600C007AC55AD56E412031EA804A905AA06F7
:10071600AB07D007D006D005D00412020F8F288E63
:10072600278D268C25E4FFFE7D807C3FAB28AA27FB
:10073600A926A8251202AC600640047F32801FE479
:10074600FFFE7D487C42AB28AA27A926A8251201D0
:10075600061203578008C200D293D297E4FF120E06
:10076600EC7BFF7A0D79A77F80120DC32001047FF1
:100776002B80027F2D120EFFE4FFFE7D207C41AB15
:1007860024AA23A922A821120106120357AD07ACF9
:1007960006E4FF120CDA7FDF120EFF7F43120EFF14
:1007A600E55A14600E1460142402600302063C7FAE
:1007B6000C80107FC8120F1A7F0F80077FC0120FA0
:0907C6001A7F0F120F1A02063C03
:10093E008E4B8F4C8B4D8A4E894FD3E54C94E7E509
:10094E004B9403504B7C007D641204F9EE8FF01231
:10095E000586AE4BAF4C7C007D0A1204F97C007DFF
:10096E000A1204F9AB4DAA4EA94F900002EC8DF07D
:10097E001205A5AE4BAF4C7C007D0A1204F9AB4DAF
:10098E00AA4EA94F900004EC8DF01205A57F00220F
:10099E00AE4BAF4C7C037DE81204F9AB4DAA4EA9C9
:1009AE004FEE8FF0120586AE4BAF4C7C007D64127D
:1009BE0004F97C007D0A1204F9AB4DAA4EA94F90A2
:1009CE000002EC8DF01205A5AE4BAF4C7C007D0AFB
:1009DE001204F97C007D0A1204F9AB4DAA4EA94F00
:1009EE00900004EC8DF01205A5AE4BAF4C7C007D53
:1009FE000A1204F9AB4DAA4EA94F900006EC8DF0E9
:060A0E001205A57F012284
:040CDA008C408D417C
:100CDE00EF6003120F1A7B007A007942AF41AE40EB
:100CEE0012093E8F4AE543120EFCE545120EFCE555
:100CFE004A6011E5472430FF120EFF7F2E120EFFC1
:100D0E00E54980077F2E120EFFE5472430FF120EB5
:010D1E00FFD5
:010D1F0022B1
:100DC3008B408A418942EF6003120F1AAB40AA415C
:100DD300A9421204CEFF6010120EFF74012542F5E2
:090DE30042E43541F54180E422AF
:0F0E38008F807F057E00120E47D2B77F057E00A8
:0D0E4700EFD3940040077E6EDEFE1F80F3A7
:010E5400227B
:030EFC002430FFA0
:0C0EFF00C2B7D2B5120E38C2B7C2B5227D
:0A0F1A00C2B7C2B5120E38C2B722EA
:100E7200C2B67F38120F1A7F0C120F1A7F06120F9A
:0B0E82001A7F01120F1A7F80020F1A66
:0400030050574D0005
:060DFF00015C01015B0034
:100EDA00EF24FE6008047009D294C29522C294D20B
:020EEA0095224F
:100E1300E55BC3955C5004D2968017E55BC3955C94
:100E2300400BE55BD394325004C2968005D296E41E
:050E3300F55B055B22E8
:100EC100C2967F01120EDA7543FF75440E75451304
:090ED1007BFF7A007903020BD9C2
:100EEC00EFD39432500280027F328F5CE4F55B22A8
:03000700C296227C
:0D0E0500011EEE01080002090001010B01B1
:100D2000E4F552F553AF53EF75F006A4240FF8869F
:100D30000308E6FA08E64A4B6011EF75F006A424B2
:100D40000FF808E6FA08E6F91205E00553E55370D6
:0E0D5000020552C39403E5526480948040C7AC
:010D5E002272
:100E8D007C007D051204F98E098F0AD2AFD2A975A7
:0B0E9D008901851E8C85088AD28C22FA
:0F0F0B007C007D051204F98E098F0AE4F50B2294
:060BD9008B408A418942B5
:100BDF00E4FFFEEF75F006A4240FF8860308E6FA8B
:100BEF0008E64A4B702CAA44A945EF75F006A424D9
:100BFF000FF8A64308A60208A601AA41A942EF755D
:100C0F00F006A4240CF8A64008A60208A601E4FEEC
:100C1F00FF220FBF00010EEF64034E70B67EFF7F01
:010C2F00FFC5
:010C300022A1
:03000B00020C885C
:100C8800C0E0C0F0C083C082C0D075D000C000C032
:100C980001C002C003C004C005C006C007851E8C81
:100CA80085088AC3E50B950AE495094008750B0188
:100CB800120D208002050BD007D006D005D004D035
:100CC80003D002D001D000D0D0D082D083D0F0D0D1
:020CD800E03208
:100D5F00C290D29200C29200D29275A0FFD291009F
:100D6F00C29100AFA07E00D291AD077C00E41203C8
:100D7F001EE4FBFA797F784312020F7B007A4079E9
:090D8F009C78451201061203577D
:010D98002238
:100E5500AD07AC06E412031EE4FBFA7930784112C3
:0D0E6500020FE4FBFA7920784012020F2200
:080A14008B4A8A4B894C8D4D81
:100A1C00E4F54EE54EC3954D5079E4F54FE54FC3E3
:100A2C00954E506BAB4AAA4BA94C75F002E54FA4FE
:100A3C00F58285F08312054EFFAEF075F002E54E9F
:100A4C00A4F58285F08312054EFDACF0D39FEC9E8D
:100A5C0040398C508D5175F002E54FA4F58285F02C
:100A6C008312054EFFAEF075F002E54EA4F58285BB
:100A7C00F083EE8FF01205A575F002E54FA4F58218
:100A8C0085F083E5508551F01205A5054F808E0544
:100A9C004E8080AB4AAA4BA94CE54D24FFFFE434B1
:100AAC00FFC313EF1375F002A4F58285F0831205D2
:040ABC004EFFAEF04B
:010AC0002213
:1007CF00120A14AC06AD07E412031E8F438E428D3E
:1007DF00418C40120357120E558F438E428D418C20
:1007EF00401203578E488F49C3E5499464E54894F6
:1007FF00005004D2018002C201C3E5499460E5486C
:10080F009400500F75470075464075454275444436
:10081F00020935C3E5499464E548940050297F39AE
:10082F007E457D237C40AB43AA42A941A8401201DB
:10083F0006A804A905AA06AB077FB87E1F7D7F7C9B
:10084F004312001102092DC3E5499470E548940045
:10085F0050217FCC7E7F7D247C40AB43AA42A941AF
:10086F00A8401201067B6A7A86798078C312001538
:10087F0002092DC3E549947BE548940050217FE799
:10088F007EFB7D257C40AB43AA42A941A8401201C3
:10089F00067B207AD2798178C312001502092DC305
:1008AF00E5499487E548940050207F917E7E7D270F
:1008BF007C40AB43AA42A941A8401201067BE37AD0
:1008CF0046798378C31200158054C3E549948BE5AC
:1008DF0048940050207F6C7E097D297C40AB43AA51
:1008EF0042A941A8401201067BCC7AE5798478C3EE
:1008FF001200158029C3E549948BE54894004026E2
:10090F007F6C7E097D297C40AB43AA42A941A84058
:10091F001201067BCC7AE5798478C31200158F47D4
:0E092F008E468D458C44AF47AE46AD45AC4478
:01093D002297
:10000E000203C3E86480F8E933E83360110460F05A
:10001E00ED33EC337009E8FCE9FDEAFEEBFF220458
:10002E0060DED3EB9FEA9EE99DE8C2E78CF0C2F753
:10003E0095F0400CE8CCF8E9CDF9EACEFAEBCFFB1F
:10004E0012038E85D0F05804700320D5B3E80470E7
:10005E00075002B2D50203CD92D5EC0460F7E4CC82
:10006E00C0E0C398F8603B94186008400DD0E0FBE8
:10007E000203A5E4FBFAC9FC8028E830E406E4C9D3
:10008E00FBE4CAFCE830E305E4C9CACBFCE854073C
:10009E006010F8C3E913F9EA13FAEB13FBEC13FC47
:1000AE00D8F130F52FC3E49CFCEF9BFFEE9AFEEDEA
:1000BE0099FDD0E0FBEF4E4D4C701222DB03020394
:1000CE00CAEC2CFCEF33FFEE33FEED33FDED30E7E3
:1000DE00EB0203A5EF2BFFEE3AFEED39FDD0E0FB70
:1000EE0050130BBB00030203CDED13FDEE13FEEF19
:0800FE0013FFEC13FC0203A543
:10010600EC4D6011E8497017ED33EC3304600DE4F3
:10011600FCFFFEFD22E933E8330470F80203C31244
:10012600038E58046009E4CC248150062850090245
:1001360003CD2840030203CAC0E0EB4A7044B980ED
:1001460006D0E0FB0203B9EF4E701CBD8008EBFF42
:10015600EAFEE9FD80EBE98DF0A4FEE5F00201EF91
:10016600E9CDF9EAFEEBFFEF89F0A4FCE5F0CE89D4
:10017600F0A42EFFE435F0CD89F0A42DFEE435F091
:100186008067EF4E7005BD80D780C3EF8BF0A4ACBF
:10019600F0EE8BF0A42CFCE435F0F8EF8AF0A42CFA
:1001A600E5F038FCE433CB8DF0A42CFCE5F03BF80D
:1001B600EE8AF0A42CFCE5F038F8E433CF89F0A4FD
:1001C6002CFCE5F038CF3400CE89F0A42FFFE5F003
:1001D6003EFEE433C98DF0A42EFEE5F039CD8AF05B
:1001E600A42FFFE5F03EFEE43DFD33D0E0FB5007D3
:1001F6000BBB000F0203CDEC2CFCEF33FFEE33FEFE
:06020600ED33FD0203A52B
:10020C000203CDEC5D046005E8590470030203C3DE
:10021C0012038E580460F6EC4860F2EC7004FDFE9C
:10022C00FF22C860DB2481C85009C39860025006C5
:10023C000203CA9850CAF582E9294B4A7005AB8271
:10024C000203B975F0007C1A7880C3EF9BEE9AED2F
:10025C0099400DC3EF9BFFEE9AFEED99FDE842F03D
:10026C00DC23ACF0D0E0FFD0E0FED0E0FDAB822090
:10027C00E7101BEB60BAEC2CFCEF33FFEE33FEED1A
:10028C0033FD0203A5E803F830E705C0F075F00074
:10029C00EF2FFFEE33FEED33FD40B830E7C280AAFE
:1002AC0074F8CC6480CCC86480C8F582046043C305
:1002BC00EB9FF5F0EA9E42F0E99D42F0E89C45F098
:1002CC0060305018E5825FFFE582F42B5582FB50BD
:1002DC00210ABA001D09B90019088016E5825BFBDA
:1002EC00E582F42F5582FF50090EBE00050DBD00AE
:1002FC00010CC3EB9FF5F0EA9E42F0E99D42F0E859
:0D030C009C45F06007CC4820E701B3EC22CF
:1003190075F020800E75F010800575F0087D007E5F
:10032900007F003392D530D5031205D2EC3340104B
:10033900EF33FFEE33FEED33FDEC33FCD5F0ED2268
:0E034900E5F0247EA2D513CC92E7CDCEFF22A4
:10035700EDD2E7CD33EC3392D524814006E4FFFE9E
:10036700FDFC22FCE4CFCECDCC24E0501174FF80FD
:10037700EDC3CC13CCCD13CDCE13CECF13CF04709A
:07038700F030D5DE0205D2C3
:10038E00E9D2E7C933E833F892D5EDD2E7CD33ECB5
:07039E0033FC5002B2D5222E
:1003A500EC30E7100FBF000C0EBE00080DBD0004B9
:1003B5000BEB6014A2D5EB13FCED92E7FD2274FF65
:1003C500FCFDFEFF22E480F8A2D574FF13FC7D80BE
:0303D500E480EFD2
:100ACD000205E6E493A3F8E493A34003F68001F254
:100ADD0008DFF48029E493A3F85407240CC8C3332A
:100AED00C4540F4420C8834004F456800146F6DFF9
:100AFD00E4800B0102040810204080900DECE47E90
:100B0D00019360BCA3FF543F30E509541FFEE493ED
:100B1D00A360010ECF54C025E060A840B8E493A3B4
:100B2D00FAE493A3F8E493A3C8C582C8CAC583CADF
:100B3D00F0A3C8C582C8CAC583CADFE9DEE780BE97
:010E120000DF
:1003D800E709F608DFFA8046E709F208DFFA803E07
:1003E80088828C83E709F0A3DFFA8032E309F608F4
:1003F800DFFA8078E309F208DFFA807088828C835C
:10040800E309F0A3DFFA806489828A83E0A3F6080F
:10041800DFFA805889828A83E0A3F208DFFA804CE9
:1004280080D280FA80C680D4806980F280338010C0
:1004380080A680EA809A80A880DA80E280CA803329
:1004480089828A83ECFAE493A3C8C582C8CCC583A1
:10045800CCF0A3C8C582C8CCC583CCDFE9DEE78071
:100468000D89828A83E493A3F608DFF9ECFAA9F0F0
:10047800EDFB2289828A83ECFAE0A3C8C582C8CC46
:10048800C583CCF0A3C8C582C8CCC583CCDFEADE5F
:10049800E880DB89828A83E493A3F208DFF980CCC1
:1004A80088F0EF60010E4E60C388F0ED2402B404BA
:1004B8000050B9F582EB2402B4040050AF23234561
:0604C8008223900428735A
:1004CE00BB010689828A83E0225002E722BBFE022C
:0904DE00E32289828A83E493225F
:1004E700EF8DF0A4A8F0CF8CF0A428CE8DF0A42E29
:0204F700FE22E3
:1004F900BC000BBE0029EF8DF084FFADF022E4CCE7
:10050900F875F008EF2FFFEE33FEEC33FCEE9DECAF
:10051900984005FCEE9DFE0FD5F0E9E4CEFD22EDF5
:10052900F8F5F0EE8420D21CFEADF075F008EF2F3F
:10053900FFED33FD4007985006D5F0F222C398FD30
:050549000FD5F0EA22CD
:10054E00BB0110E58229F582E5833AF583E0F5F0EB
:10055E00A3E0225009E92582F886F008E622BBFEC8
:10056E000AE92582F8E2F5F008E222E5832AF5830E
:08057E00E993F5F0A3E99322D3
:10058600BB010A89828A83F0E5F0A3F0225006F7C0
:0F05960009A7F01922BBFE06F3E5F009F31922BD
:1005A500F8BB0111E58229F582E5833AF583E8F088
:1005B500E5F0A3F0225009E92582C8F608A6F02245
:0D05C500BBFE09E92582C8F2E5F008F2222C
:0E05D200C3E49FFFE49EFEE49DFDE49CFC223A
:0605E0008A838982E473A6
:00000001FF
